:020000040800F2
:1000000000280020CD0900087109000877090008C0
:100010007D09000883090008890900080000000024
:100020000000000000000000000000008F09000830
:100030009B09000800000000A7090008B309000898
:10004000150A0008150A0008150A0008150A000814
:10005000150A0008150A0008150A0008150A000804
:10006000150A0008150A0008150A0008150A0008F4
:10007000150A0008150A0008150A0008150A0008E4
:10008000150A0008150A0008150A0008150A0008D4
:10009000150A0008150A0008150A0008150A0008C4
:1000A000150A0008150A0008150A0008150A0008B4
:1000B000150A0008150A000800000000150A0008CB
:1000C000150A00080000000000000000150A0008E2
:1000D00000000000150A0008150A000800000000D2
:1000E000150A0008150A0008150A0008000000009B
:1000F0000000000000000000000000000000000000
:0C01000000000000000000005FF808F1A3
:10010C0010B5054C237833B9044B13B10448AFF345
:10011C0000800123237010BD0C00002000000000A3
:10012C002818000808B5034B1BB103490348AFF36B
:10013C00008008BD000000001000002028180008F6
:10014C0080B582B000AF78607B680B2B00F25A83CD
:10015C0001A252F823F000BF950100081F0200080D
:10016C00A902000833030008BD0300084704000877
:10017C00D50400085F050008E905000873060008AF
:10018C00FD0600088707000801221021CD4800F069
:10019C0023FF00222021CB4800F01EFF002240212B
:1001AC00C84800F019FF00228021C64800F014FF57
:1001BC0000224FF48071C34800F00EFF00224FF470
:1001CC000071C04800F008FF00224FF48061BD4868
:1001DC0000F002FF00224FF40061BA4800F0FCFE70
:1001EC0000224FF48051B74800F0F6FE00224FF485
:1001FC000051B44800F0F0FE00224FF48041B148A9
:10020C0000F0EAFE00224FF40041AE4800F0E4FE9C
:10021C00F9E200221021AB4800F0DEFE0122202181
:10022C00A84800F0D9FE00224021A64800F0D4FED8
:10023C0000228021A34800F0CFFE00224FF48071F1
:10024C00A04800F0C9FE00224FF400719D4800F058
:10025C00C3FE00224FF480619A4800F0BDFE0022DC
:10026C004FF40061974800F0B7FE00224FF4805124
:10027C00944800F0B1FE00224FF40051914800F078
:10028C00ABFE00224FF480418E4800F0A5FE002208
:10029C004FF400418B4800F09FFEB4E20022102185
:1002AC00884800F099FE00222021864800F094FE38
:1002BC0001224021834800F08FFE002280218148DA
:1002CC0000F08AFE00224FF480717E4800F084FE1C
:1002DC0000224FF400717B4800F07EFE00224FF4A8
:1002EC008061784800F078FE00224FF40061754878
:1002FC0000F072FE00224FF48051724800F06CFE48
:10030C0000224FF400516F4800F066FE00224FF4BB
:10031C0080416C4800F060FE00224FF400416948B7
:10032C0000F05AFE6FE200221021664800F054FEE5
:10033C0000222021634800F04FFE0022402161483A
:10034C0000F04AFE012280215E4800F045FE0022AA
:10035C004FF480715B4800F03FFE00224FF40071B7
:10036C00584800F039FE00224FF48061554800F0E7
:10037C0033FE00224FF40061524800F02DFE0022A3
:10038C004FF480514F4800F027FE00224FF40051EB
:10039C004C4800F021FE00224FF48041494800F007
:1003AC001BFE00224FF40041464800F015FE2AE2E5
:1003BC0000221021434800F00FFE0022202141486A
:1003CC0000F00AFE002240213E4800F005FE00220B
:1003DC0080213C4800F000FE01224FF48071394826
:1003EC0000F0FAFD00224FF40071364800F0F4FDE5
:1003FC0000224FF48061334800F0EEFD00224FF4F0
:10040C000061304800F0E8FD00224FF480512D4887
:10041C0000F0E2FD00224FF400512A4800F0DCFD10
:10042C0000224FF48041274800F0D6FD00224FF403
:10043C000041244800F0D0FDE5E1002210212148C4
:10044C0000F0CAFD002220211E4800F0C5FD00224C
:10045C0040211C4800F0C0FD00228021194800F00A
:10046C00BBFD00224FF48071164800F0B5FD01224F
:10047C004FF40071134800F0AFFD00224FF480617F
:10048C00104800F0A9FD00224FF400610D4800F067
:10049C00A3FD00224FF480510A4800F09DFD00227C
:1004AC004FF40051074800F097FD00224FF48041B3
:1004BC00044800F091FD00224FF40041014800F087
:1004CC008BFDA0E10008014000221021D04800F073
:1004DC0083FD00222021CE4800F07EFD0022402129
:1004EC00CB4800F079FD00228021C94800F074FD52
:1004FC0000224FF48071C64800F06EFD00224FF4CC
:10050C000071C34800F068FD01224FF48061C048BF
:10051C0000F062FD00224FF40061BD4800F05CFD6C
:10052C0000224FF48051BA4800F056FD00224FF4DF
:10053C000051B74800F050FD00224FF48041B44800
:10054C0000F04AFD00224FF40041B14800F044FD98
:10055C0059E100221021AE4800F03EFD002220217E
:10056C00AB4800F039FD00224021A94800F034FDD1
:10057C0000228021A64800F02FFD00224FF480714C
:10058C00A34800F029FD00224FF40071A04800F0B0
:10059C0023FD00224FF480619D4800F01DFD0122D7
:1005AC004FF400619A4800F017FD00224FF480517F
:1005BC00974800F011FD00224FF40051944800F0D0
:1005CC000BFD00224FF48041914800F005FD002204
:1005DC004FF400418E4800F0FFFC14E10022102182
:1005EC008B4800F0F9FC00222021894800F0F4FC33
:1005FC0000224021864800F0EFFC00228021844834
:10060C0000F0EAFC00224FF48071814800F0E4FC19
:10061C0000224FF400717E4800F0DEFC00224FF403
:10062C0080617B4800F0D8FC00224FF400617848D0
:10063C0000F0D2FC01224FF48051754800F0CCFC44
:10064C0000224FF40051724800F0C6FC00224FF417
:10065C0080416F4800F0C0FC00224FF400416C4810
:10066C0000F0BAFCCFE000221021694800F0B4FC85
:10067C0000222021664800F0AFFC00224021644893
:10068C0000F0AAFC00228021614800F0A5FC0022A9
:10069C004FF480715E4800F09FFC00224FF4007113
:1006AC005B4800F099FC00224FF48061584800F040
:1006BC0093FC00224FF40061554800F08DFC0022A1
:1006CC004FF48051524800F087FC01224FF4005146
:1006DC004F4800F081FC00224FF480414C4800F060
:1006EC007BFC00224FF40041494800F075FC8AE085
:1006FC0000221021464800F06FFC002220214448C3
:10070C0000F06AFC00224021414800F065FC002208
:10071C0080213F4800F060FC00224FF480713C487F
:10072C0000F05AFC00224FF40071394800F054FCE0
:10073C0000224FF48061364800F04EFC00224FF44A
:10074C000061334800F048FC00224FF480513048DF
:10075C0000F042FC00224FF400512D4800F03CFC0C
:10076C0001224FF480412A4800F036FC00224FF45D
:10077C000041274800F030FC45E0002210212448BD
:10078C0000F02AFC00222021214800F025FC002248
:10079C0040211F4800F020FC002280211C4800F062
:1007AC001BFC00224FF48071194800F015FC00224C
:1007BC004FF40071164800F00FFC00224FF48061DA
:1007CC00134800F009FC00224FF40061104800F0BF
:1007DC0003FC00224FF480510D4800F0FDFB002279
:1007EC004FF400510A4800F0F7FB00224FF480410F
:1007FC00074800F0F1FB01224FF40041044800F0DF
:10080C00EBFB00E000BF00BF0837BD4680BD00BF5A
:10081C000008014080B500AF00F0F8F800F00AF8CD
:10082C0000F044F80520FFF78BFC4FF47A7000F0D1
:10083C004FF9F7E780B590B000AF07F11803282205
:10084C000021184600F0BEFF3B1D00221A605A60C2
:10085C009A60DA601A610223BB610123BB62102328
:10086C00FB6200237B6307F11803184600F0CCFBF6
:10087C000346002B01D000F04DF80F237B600023C2
:10088C00BB600023FB6000233B6100237B613B1DAD
:10089C000021184600F03AFE0346002B01D000F070
:1008AC0039F800BF4037BD4680BD000080B586B02A
:1008BC0000AF07F1080300221A605A609A60DA60F0
:1008CC00124B9B69114A43F0040393610F4B9B69D4
:1008DC0003F004037B607B6800224FF6F0710C4838
:1008EC0000F07AFB4FF6F073BB600123FB60002332
:1008FC003B6102237B6107F108031946044800F0B1
:10090C00EFF900BF1837BD4680BD00BF0010024094
:10091C000008014080B400AF72B600BFFEE70000D3
:10092C0080B483B000AF0E4B9B690D4A43F00103BA
:10093C0093610B4B9B6903F001037B607B68084B55
:10094C00DB69074A43F08053D361054BDB6903F045
:10095C0080533B603B6800BF0C37BD4680BC704782
:10096C000010024080B400AFFEE780B400AFFEE799
:10097C0080B400AFFEE780B400AFFEE780B400AFF8
:10098C00FEE780B400AF00BFBD4680BC704780B4AA
:10099C0000AF00BFBD4680BC704780B400AF00BF45
:1009AC00BD4680BC704780B500AF00F075F800BF45
:1009BC0080BD80B400AF00BFBD4680BC7047000056
:1009CC00FFF7F7FF0B480C490C4A002302E0D45800
:1009DC00C4500433C4188C42F9D3094A094C00237F
:1009EC0001E013600432A242FBD300F0F3FEFFF7E8
:1009FC0011FF7047000000200C0000206C1800084C
:100A0C000C0000202C000020FEE7000080B500AF99
:100A1C00084B1B68074A43F010031360032000F0D7
:100A2C002BF90F2000F008F8FFF77AFF0023184687
:100A3C0080BD00BF0020024080B582B000AF78605E
:100A4C00124B1A68124B1B7819464FF47A73B3FB8E
:100A5C00F1F3B2FBF3F3184600F035F90346002B23
:100A6C0001D001230EE07B680F2B0AD80022796895
:100A7C004FF0FF3000F00BF9064A7B68136000233F
:100A8C0000E0012318460837BD4680BD0000002059
:100A9C00080000200400002080B400AF054B1B7838
:100AAC001A46054B1B681344034A136000BFBD462E
:100ABC0080BC7047080000202800002080B400AFE4
:100ACC00024B1B681846BD4680BC704728000020AE
:100ADC0080B584B000AF7860FFF7F0FFB8607B683A
:100AEC00FB60FB68B3F1FF3F05D00A4B1B781A463D
:100AFC00FB681344FB6000BFFFF7E0FF0246BB68D6
:100B0C00D31AFA689A42F7D800BF00BF1037BD4617
:100B1C0080BD00BF0800002080B485B000AF7860B5
:100B2C007B6803F00703FB600C4BDB68BB60BA68A7
:100B3C004FF6FF031340BB60FB681A02BB681343FC
:100B4C0043F0BF6343F40033BB60044ABB68D3601B
:100B5C0000BF1437BD4680BC704700BF00ED00E0FD
:100B6C0080B400AF044BDB681B0A03F00703184684
:100B7C00BD4680BC704700BF00ED00E080B483B080
:100B8C0000AF03463960FB7197F90730002B0ADB85
:100B9C003B68DAB20C4997F907301201D2B20B4418
:100BAC0083F800230AE03B68DAB20849FB7903F0CA
:100BBC000F03043B1201D2B20B441A7600BF0C3760
:100BCC00BD4680BC704700BF00E100E000ED00E0D6
:100BDC0080B489B000AFF860B9607A60FB6803F04C
:100BEC000703FB61FB69C3F10703042B28BF042334
:100BFC00BB61FB690433062B02D9FB69033B00E0A4
:100C0C0000237B614FF0FF32BB6902FA03F3DA4336
:100C1C00BB681A407B699A404FF0FF317B6901FA3F
:100C2C0003F3D9437B680B40134318462437BD4666
:100C3C0080BC704780B582B000AF78607B68013BA8
:100C4C00B3F1807F01D301230FE00A4A7B68013B9B
:100C5C0053600F214FF0FF30FFF790FF054B002240
:100C6C009A60044B07221A60002318460837BD46C9
:100C7C0080BD00BF10E000E080B582B000AF7860AE
:100C8C007868FFF749FF00BF0837BD4680BD80B5C7
:100C9C0086B000AF0346B9607A60FB7300237B61BA
:100CAC00FFF75EFF78617A68B9687869FFF790FFA3
:100CBC00024697F90F3011461846FFF75FFF00BF49
:100CCC001837BD4680BD80B582B000AF78607868BB
:100CDC00FFF7B0FF034618460837BD4680BD00003D
:100CEC0080B48BB000AF7860396000237B62002346
:100CFC003B6261E101227B6A02FA03F3FB613B6810
:100D0C001B68FA691340BB61BA69FB699A4240F0EF
:100D1C0050813B685B68974A93425ED0954A9342F8
:100D2C0075D8954A934258D0934A93426FD8934AB8
:100D3C00934252D0914A934269D8914A93424CD0F3
:100D4C008F4A934263D88F4A934246D08D4A93423E
:100D5C005DD8122B2AD8122B59D801A252F823F0A5
:100D6C00E70D0008C10D0008D30D0008150E000892
:100D7C001B0E00081B0E00081B0E00081B0E0008A3
:100D8C001B0E00081B0E00081B0E00081B0E000893
:100D9C001B0E00081B0E00081B0E00081B0E000883
:100DAC001B0E0008C90D0008DD0D0008764A9342A1
:100DBC0013D02CE03B68DB683B6229E03B68DB68C6
:100DCC0004333B6224E03B68DB6808333B621FE082
:100DDC003B68DB680C333B621AE03B689B68002B7A
:100DEC0002D104233B6213E03B689B68012B05D1C5
:100DFC0008233B627B68FA691A6109E008233B62AD
:100E0C007B68FA695A6103E000233B6200E000BF93
:100E1C00BB69FF2B01D87B6801E07B6804337B61E5
:100E2C00BB69FF2B02D87B6A9B0002E07B6A083B04
:100E3C009B003B617B691A680F213B6901FA03F344
:100E4C00DB431A40396A3B6901FA03F31A437B69A5
:100E5C001A603B685B6803F08053002B00F0A9809C
:100E6C004A4B9B69494A43F001039361474B9B6989
:100E7C0003F00103BB60BB68454A7B6A9B080233E5
:100E8C0052F82330FB607B6A03F003039B000F22B4
:100E9C0002FA03F3DB43FA681340FB607B683D4ABC
:100EAC0093420DD07B683C4A934207D07B683B4A07
:100EBC00934201D1022304E0032302E0012300E06A
:100ECC0000237A6A02F0030292009340FA681343FB
:100EDC00FB602F497B6A9B080233FA6841F8232098
:100EEC003B685B6803F48013002B06D02C4B9A688C
:100EFC002B49BB6913438B6006E0294B9A68BB698D
:100F0C00DB43274913408B603B685B6803F4001399
:100F1C00002B06D0224BDA682149BB691343CB6006
:100F2C0006E01F4BDA68BB69DB431D491340CB60FD
:100F3C003B685B6803F40033002B06D0184B5A68EF
:100F4C001749BB6913434B6006E0154B5A68BB69E4
:100F5C00DB43134913404B603B685B6803F48033FD
:100F6C00002B1FD00E4B1A680D49BB6913430B6045
:100F7C001FE000BF000032100000311000002210F2
:100F8C00000021100000121000001110001002408F
:100F9C000000014000080140000C0140001001401D
:100FAC00000401400B4B1A68BB69DB430949134031
:100FBC000B607B6A01337B623B681A687B6A22FA9E
:100FCC0003F3002B7FF496AE00BF00BF2C37BD4659
:100FDC0080BC70470004014080B483B000AF7860DF
:100FEC000B467B8013467B707B78002B03D07A8872
:100FFC007B681A6103E07B881A047B681A6100BF66
:10100C000C37BD4680BC704780B586B000AF7860A9
:10101C007B68002B01D1012372E27B681B6803F013
:10102C000103002B00F08780924B5B6803F00C03EC
:10103C00042B0CD08F4B5B6803F00C03082B12D1E4
:10104C008C4B5B6803F48033B3F5803F0BD1894B39
:10105C001B6803F40033002B6CD07B685B68002B9F
:10106C0068D101234CE27B685B68B3F5803F06D105
:10107C00804B1B687F4A43F4803313602EE07B68FF
:10108C005B68002B0CD17B4B1B687A4A23F48033B2
:10109C001360784B1B68774A23F4802313601DE0A0
:1010AC007B685B68B3F5A02F0CD1724B1B68714A3F
:1010BC0043F4802313606F4B1B686E4A43F48033F8
:1010CC0013600BE06B4B1B686A4A23F4803313608C
:1010DC00684B1B68674A23F4802313607B685B684A
:1010EC00002B13D0FFF7EAFC386108E0FFF7E6FCB1
:1010FC0002463B69D31A642B01D9032300E25D4BF2
:10110C001B6803F40033002BF0D014E0FFF7D6FC7F
:10111C00386108E0FFF7D2FC02463B69D31A642B16
:10112C0001D90323ECE1534B1B6803F40033002B70
:10113C00F0D100E000BF7B681B6803F00203002BBA
:10114C0063D04C4B5B6803F00C03002B0BD0494B6A
:10115C005B6803F00C03082B1CD1464B5B6803F453
:10116C008033002B16D1434B1B6803F00203002B7A
:10117C0005D07B681B69012B01D00123C0E13D4BDD
:10118C001B6823F0F8027B685B69DB003949134369
:10119C000B603AE07B681B69002B20D0364B012298
:1011AC001A60FFF78BFC386108E0FFF787FC0246FA
:1011BC003B69D31A022B01D90323A1E12D4B1B68E8
:1011CC0003F00203002BF0D02A4B1B6823F0F8022B
:1011DC007B685B69DB00274913430B6015E0264BEA
:1011EC0000221A60FFF76AFC386108E0FFF766FC22
:1011FC0002463B69D31A022B01D9032380E11D4B14
:10120C001B6803F00203002BF0D17B681B6803F012
:10121C000803002B3AD07B689B69002B19D0174B25
:10122C0001221A60FFF74AFC386108E0FFF746FC20
:10123C0002463B69D31A022B01D9032360E10D4B03
:10124C005B6A03F00203002BF0D0012000F09CFA43
:10125C001CE00A4B00221A60FFF730FC38610FE0EB
:10126C00FFF72CFC02463B69D31A022B08D9032347
:10127C0046E100BF0010024000004242800442429E
:10128C00924B5B6A03F00203002BE9D17B681B686D
:10129C0003F00403002B00F0A6800023FB758B4B9E
:1012AC00DB6903F08053002B0DD1884BDB69874A37
:1012BC0043F08053D361854BDB6903F08053BB60F3
:1012CC00BB680123FB75824B1B6803F48073002BF6
:1012DC0018D17F4B1B687E4A43F480731360FFF771
:1012EC00EDFB386108E0FFF7E9FB02463B69D31AD6
:1012FC00642B01D9032303E1754B1B6803F4807342
:10130C00002BF0D07B68DB68012B06D16F4B1B6A7E
:10131C006E4A43F0010313622DE07B68DB68002BFF
:10132C000CD16A4B1B6A694A23F001031362674BA9
:10133C001B6A664A23F0040313621CE07B68DB68BB
:10134C00052B0CD1614B1B6A604A43F004031362FA
:10135C005E4B1B6A5D4A43F0010313620BE05B4B6F
:10136C001B6A5A4A23F001031362584B1B6A574AF3
:10137C0023F0040313627B68DB68002B15D0FFF7A6
:10138C009DFB38610AE0FFF799FB02463B69D31AD3
:10139C0041F28832934201D90323B1E04B4B1B6AD3
:1013AC0003F00203002BEED014E0FFF787FB38614B
:1013BC000AE0FFF783FB02463B69D31A41F28832FD
:1013CC00934201D903239BE0404B1B6A03F00203B9
:1013DC00002BEED1FB7D012B05D13C4BDB693B4A4D
:1013EC0023F08053D3617B68DB69002B00F087808E
:1013FC00364B5B6803F00C03082B61D07B68DB6910
:10140C00022B46D1334B00221A60FFF757FB386191
:10141C0008E0FFF753FB02463B69D31A022B01D9B4
:10142C0003236DE0294B1B6803F00073002BF0D1F4
:10143C007B681B6AB3F5803F08D1244B5B6823F4AF
:10144C0000327B689B68214913434B601F4B5B68E0
:10145C0023F474127B68196A7B685B6A0B431B4923
:10146C0013434B601B4B01221A60FFF727FB3861BB
:10147C0008E0FFF723FB02463B69D31A022B01D984
:10148C0003233DE0114B1B6803F00073002BF0D0DD
:10149C0035E0104B00221A60FFF710FB386108E0B2
:1014AC00FFF70CFB02463B69D31A022B01D903232D
:1014BC0026E0064B1B6803F00073002BF0D11EE0F6
:1014CC007B68DB69012B07D1012319E00010024076
:1014DC0000700040600042420B4B5B68FB60FB6895
:1014EC0003F480327B681B6A9A4206D1FB6803F4D2
:1014FC0070127B685B6A9A4201D0012300E00023E2
:10150C0018461837BD4680BD0010024080B584B027
:10151C0000AF786039607B68002B01D10123D0E0EB
:10152C006A4B1B6803F007033A689A4210D9674B61
:10153C001B6823F0070265493B6813430B60634B40
:10154C001B6803F007033A689A4201D00123B8E004
:10155C007B681B6803F00203002B20D07B681B68A0
:10156C0003F00403002B05D0594B5B68584A43F435
:10157C00E06353607B681B6803F00803002B05D005
:10158C00534B5B68524A43F460535360504B5B6857
:10159C0023F0F0027B689B684D4913434B607B68DA
:1015AC001B6803F00103002B40D07B685B68012BA8
:1015BC0007D1474B1B6803F40033002B15D10123D3
:1015CC007FE07B685B68022B07D1414B1B6803F003
:1015DC000073002B09D1012373E03D4B1B6803F012
:1015EC000203002B01D101236BE0394B5B6823F024
:1015FC0003027B685B68364913434B60FFF75EFA66
:10160C00F8600AE0FFF75AFA0246FB68D31A41F277
:10161C008832934201D9032353E02D4B5B6803F0CE
:10162C000C027B685B689B009A42EBD1274B1B68D2
:10163C0003F007033A689A4210D2244B1B6823F03C
:10164C00070222493B6813430B60204B1B6803F0D5
:10165C0007033A689A4201D0012332E07B681B6889
:10166C0003F00403002B08D0194B5B6823F4E062F1
:10167C007B68DB68164913434B607B681B6803F07F
:10168C000803002B09D0124B5B6823F460527B6873
:10169C001B69DB000E4913434B6000F021F8024636
:1016AC000B4B5B681B0903F00F030A49CB5C22FA56
:1016BC0003F3094A1360094B1B681846FFF7BCF982
:1016CC00002318461037BD4680BD00BF00200240E5
:1016DC000010024040180008000000200400002008
:1016EC0080B487B000AF0023FB600023BB600023F5
:1016FC007B6100237B6000233B611E4B5B68FB60BE
:10170C00FB6803F00C03042B02D0082B03D027E05A
:10171C00194B3B6127E0FB689B0C03F00F03174A46
:10172C00D35C7B60FB6803F48033002B10D0114B2F
:10173C005B685B0C03F00103114AD35CBB607B68F4
:10174C000D4A03FB02F2BB68B2FBF3F37B6104E0CE
:10175C007B680C4A02FB03F37B617B693B6102E013
:10176C00054B3B6100BF3B6918461C37BD4680BC2E
:10177C00704700BF0010024000127A005018000899
:10178C006018000800093D0080B485B000AF786097
:10179C000A4B1B680A4AA2FB03235B0A7A6802FB0A
:1017AC0003F3FB6000BFFB685A1EFA60002BF9D1F3
:1017BC0000BF00BF1437BD4680BC7047000000203E
:1017CC00D34D621003460244934200D1704703F894
:1017DC00011BF9E770B500260C4D0D4C641BA410D1
:1017EC00A64209D100F01AF800260A4D0A4C641BD7
:1017FC00A410A64205D170BD55F8043B984701369C
:10180C00EEE755F8043B98470136F2E764180008F8
:10181C00641800086418000868180008F8B500BFC0
:10182C00F8BC08BC9E467047F8B500BFF8BC08BCB5
:04183C009E4670470D
:101840000000000000000000010203040607080970
:1018500002030405060708090A0B0C0D0E0F1010F1
:041860000102000081
:041864003101000846
:041868000D01000866
:0C186C0000127A001000000001000000D3
:04000005080009CD19
:00000001FF
